{
	"bytes.sol": {
		"bytesArray": {
			"abi": [
				{
					"inputs": [
						{
							"internalType": "uint256",
							"name": "i",
							"type": "uint256"
						}
					],
					"name": "getElement",
					"outputs": [
						{
							"internalType": "bytes1",
							"name": "",
							"type": "bytes1"
						}
					],
					"stateMutability": "view",
					"type": "function"
				},
				{
					"inputs": [],
					"name": "myArray",
					"outputs": [
						{
							"internalType": "bytes3",
							"name": "",
							"type": "bytes3"
						}
					],
					"stateMutability": "view",
					"type": "function"
				}
			],
			"devdoc": {
				"kind": "dev",
				"methods": {},
				"version": 1
			},
			"evm": {
				"assembly": "    /* \"bytes.sol\":74:232  contract bytesArray{\r... */\n  mstore(0x40, 0x80)\n    /* \"bytes.sol\":100:129  bytes3 public myArray = \"124\" */\n  0x3132340000000000000000000000000000000000000000000000000000000000\n  0x00\n  dup1\n  0x0100\n  exp\n  dup2\n  sload\n  dup2\n  0xffffff\n  mul\n  not\n  and\n  swap1\n  dup4\n  0xe8\n  shr\n  mul\n  or\n  swap1\n  sstore\n  pop\n    /* \"bytes.sol\":74:232  contract bytesArray{\r... */\n  callvalue\n  dup1\n  iszero\n  tag_1\n  jumpi\n  0x00\n  dup1\n  revert\ntag_1:\n  pop\n  dataSize(sub_0)\n  dup1\n  dataOffset(sub_0)\n  0x00\n  codecopy\n  0x00\n  return\nstop\n\nsub_0: assembly {\n        /* \"bytes.sol\":74:232  contract bytesArray{\r... */\n      mstore(0x40, 0x80)\n      callvalue\n      dup1\n      iszero\n      tag_1\n      jumpi\n      0x00\n      dup1\n      revert\n    tag_1:\n      pop\n      jumpi(tag_2, lt(calldatasize, 0x04))\n      shr(0xe0, calldataload(0x00))\n      dup1\n      0x3a7d22bc\n      eq\n      tag_3\n      jumpi\n      dup1\n      0x8ac41c27\n      eq\n      tag_4\n      jumpi\n    tag_2:\n      0x00\n      dup1\n      revert\n        /* \"bytes.sol\":138:229  function getElement(uint i) public view returns(bytes1){\r... */\n    tag_3:\n      tag_5\n      0x04\n      dup1\n      calldatasize\n      sub\n      dup2\n      add\n      swap1\n      tag_6\n      swap2\n      swap1\n      tag_7\n      jump\t// in\n    tag_6:\n      tag_8\n      jump\t// in\n    tag_5:\n      mload(0x40)\n      tag_9\n      swap2\n      swap1\n      tag_10\n      jump\t// in\n    tag_9:\n      mload(0x40)\n      dup1\n      swap2\n      sub\n      swap1\n      return\n        /* \"bytes.sol\":100:129  bytes3 public myArray = \"124\" */\n    tag_4:\n      tag_11\n      tag_12\n      jump\t// in\n    tag_11:\n      mload(0x40)\n      tag_13\n      swap2\n      swap1\n      tag_14\n      jump\t// in\n    tag_13:\n      mload(0x40)\n      dup1\n      swap2\n      sub\n      swap1\n      return\n        /* \"bytes.sol\":138:229  function getElement(uint i) public view returns(bytes1){\r... */\n    tag_8:\n        /* \"bytes.sol\":186:192  bytes1 */\n      0x00\n        /* \"bytes.sol\":211:218  myArray */\n      dup1\n      0x00\n      swap1\n      sload\n      swap1\n      0x0100\n      exp\n      swap1\n      div\n      0xe8\n      shl\n        /* \"bytes.sol\":219:220  i */\n      dup3\n        /* \"bytes.sol\":211:221  myArray[i] */\n      0x03\n      dup2\n      lt\n      tag_16\n      jumpi\n      tag_17\n      tag_18\n      jump\t// in\n    tag_17:\n    tag_16:\n      byte\n      0xf8\n      shl\n        /* \"bytes.sol\":204:221  return myArray[i] */\n      swap1\n      pop\n        /* \"bytes.sol\":138:229  function getElement(uint i) public view returns(bytes1){\r... */\n      swap2\n      swap1\n      pop\n      jump\t// out\n        /* \"bytes.sol\":100:129  bytes3 public myArray = \"124\" */\n    tag_12:\n      0x00\n      dup1\n      sload\n      swap1\n      0x0100\n      exp\n      swap1\n      div\n      0xe8\n      shl\n      dup2\n      jump\t// out\n        /* \"#utility.yul\":7:146   */\n    tag_20:\n        /* \"#utility.yul\":53:58   */\n      0x00\n        /* \"#utility.yul\":91:97   */\n      dup2\n        /* \"#utility.yul\":78:98   */\n      calldataload\n        /* \"#utility.yul\":69:98   */\n      swap1\n      pop\n        /* \"#utility.yul\":107:140   */\n      tag_22\n        /* \"#utility.yul\":134:139   */\n      dup2\n        /* \"#utility.yul\":107:140   */\n      tag_23\n      jump\t// in\n    tag_22:\n        /* \"#utility.yul\":7:146   */\n      swap3\n      swap2\n      pop\n      pop\n      jump\t// out\n        /* \"#utility.yul\":152:481   */\n    tag_7:\n        /* \"#utility.yul\":211:217   */\n      0x00\n        /* \"#utility.yul\":260:262   */\n      0x20\n        /* \"#utility.yul\":248:257   */\n      dup3\n        /* \"#utility.yul\":239:246   */\n      dup5\n        /* \"#utility.yul\":235:258   */\n      sub\n        /* \"#utility.yul\":231:263   */\n      slt\n        /* \"#utility.yul\":228:347   */\n      iszero\n      tag_25\n      jumpi\n        /* \"#utility.yul\":266:345   */\n      tag_26\n      tag_27\n      jump\t// in\n    tag_26:\n        /* \"#utility.yul\":228:347   */\n    tag_25:\n        /* \"#utility.yul\":386:387   */\n      0x00\n        /* \"#utility.yul\":411:464   */\n      tag_28\n        /* \"#utility.yul\":456:463   */\n      dup5\n        /* \"#utility.yul\":447:453   */\n      dup3\n        /* \"#utility.yul\":436:445   */\n      dup6\n        /* \"#utility.yul\":432:454   */\n      add\n        /* \"#utility.yul\":411:464   */\n      tag_20\n      jump\t// in\n    tag_28:\n        /* \"#utility.yul\":401:464   */\n      swap2\n      pop\n        /* \"#utility.yul\":357:474   */\n      pop\n        /* \"#utility.yul\":152:481   */\n      swap3\n      swap2\n      pop\n      pop\n      jump\t// out\n        /* \"#utility.yul\":487:602   */\n    tag_29:\n        /* \"#utility.yul\":572:595   */\n      tag_31\n        /* \"#utility.yul\":589:594   */\n      dup2\n        /* \"#utility.yul\":572:595   */\n      tag_32\n      jump\t// in\n    tag_31:\n        /* \"#utility.yul\":567:570   */\n      dup3\n        /* \"#utility.yul\":560:596   */\n      mstore\n        /* \"#utility.yul\":487:602   */\n      pop\n      pop\n      jump\t// out\n        /* \"#utility.yul\":608:723   */\n    tag_33:\n        /* \"#utility.yul\":693:716   */\n      tag_35\n        /* \"#utility.yul\":710:715   */\n      dup2\n        /* \"#utility.yul\":693:716   */\n      tag_36\n      jump\t// in\n    tag_35:\n        /* \"#utility.yul\":688:691   */\n      dup3\n        /* \"#utility.yul\":681:717   */\n      mstore\n        /* \"#utility.yul\":608:723   */\n      pop\n      pop\n      jump\t// out\n        /* \"#utility.yul\":729:947   */\n    tag_10:\n        /* \"#utility.yul\":820:824   */\n      0x00\n        /* \"#utility.yul\":858:860   */\n      0x20\n        /* \"#utility.yul\":847:856   */\n      dup3\n        /* \"#utility.yul\":843:861   */\n      add\n        /* \"#utility.yul\":835:861   */\n      swap1\n      pop\n        /* \"#utility.yul\":871:940   */\n      tag_38\n        /* \"#utility.yul\":937:938   */\n      0x00\n        /* \"#utility.yul\":926:935   */\n      dup4\n        /* \"#utility.yul\":922:939   */\n      add\n        /* \"#utility.yul\":913:919   */\n      dup5\n        /* \"#utility.yul\":871:940   */\n      tag_29\n      jump\t// in\n    tag_38:\n        /* \"#utility.yul\":729:947   */\n      swap3\n      swap2\n      pop\n      pop\n      jump\t// out\n        /* \"#utility.yul\":953:1171   */\n    tag_14:\n        /* \"#utility.yul\":1044:1048   */\n      0x00\n        /* \"#utility.yul\":1082:1084   */\n      0x20\n        /* \"#utility.yul\":1071:1080   */\n      dup3\n        /* \"#utility.yul\":1067:1085   */\n      add\n        /* \"#utility.yul\":1059:1085   */\n      swap1\n      pop\n        /* \"#utility.yul\":1095:1164   */\n      tag_40\n        /* \"#utility.yul\":1161:1162   */\n      0x00\n        /* \"#utility.yul\":1150:1159   */\n      dup4\n        /* \"#utility.yul\":1146:1163   */\n      add\n        /* \"#utility.yul\":1137:1143   */\n      dup5\n        /* \"#utility.yul\":1095:1164   */\n      tag_33\n      jump\t// in\n    tag_40:\n        /* \"#utility.yul\":953:1171   */\n      swap3\n      swap2\n      pop\n      pop\n      jump\t// out\n        /* \"#utility.yul\":1258:1407   */\n    tag_32:\n        /* \"#utility.yul\":1294:1301   */\n      0x00\n        /* \"#utility.yul\":1334:1400   */\n      0xff00000000000000000000000000000000000000000000000000000000000000\n        /* \"#utility.yul\":1327:1332   */\n      dup3\n        /* \"#utility.yul\":1323:1401   */\n      and\n        /* \"#utility.yul\":1312:1401   */\n      swap1\n      pop\n        /* \"#utility.yul\":1258:1407   */\n      swap2\n      swap1\n      pop\n      jump\t// out\n        /* \"#utility.yul\":1413:1562   */\n    tag_36:\n        /* \"#utility.yul\":1449:1456   */\n      0x00\n        /* \"#utility.yul\":1489:1555   */\n      0xffffff0000000000000000000000000000000000000000000000000000000000\n        /* \"#utility.yul\":1482:1487   */\n      dup3\n        /* \"#utility.yul\":1478:1556   */\n      and\n        /* \"#utility.yul\":1467:1556   */\n      swap1\n      pop\n        /* \"#utility.yul\":1413:1562   */\n      swap2\n      swap1\n      pop\n      jump\t// out\n        /* \"#utility.yul\":1568:1645   */\n    tag_45:\n        /* \"#utility.yul\":1605:1612   */\n      0x00\n        /* \"#utility.yul\":1634:1639   */\n      dup2\n        /* \"#utility.yul\":1623:1639   */\n      swap1\n      pop\n        /* \"#utility.yul\":1568:1645   */\n      swap2\n      swap1\n      pop\n      jump\t// out\n        /* \"#utility.yul\":1651:1831   */\n    tag_18:\n        /* \"#utility.yul\":1699:1776   */\n      0x4e487b7100000000000000000000000000000000000000000000000000000000\n        /* \"#utility.yul\":1696:1697   */\n      0x00\n        /* \"#utility.yul\":1689:1777   */\n      mstore\n        /* \"#utility.yul\":1796:1800   */\n      0x32\n        /* \"#utility.yul\":1793:1794   */\n      0x04\n        /* \"#utility.yul\":1786:1801   */\n      mstore\n        /* \"#utility.yul\":1820:1824   */\n      0x24\n        /* \"#utility.yul\":1817:1818   */\n      0x00\n        /* \"#utility.yul\":1810:1825   */\n      revert\n        /* \"#utility.yul\":1960:2077   */\n    tag_27:\n        /* \"#utility.yul\":2069:2070   */\n      0x00\n        /* \"#utility.yul\":2066:2067   */\n      dup1\n        /* \"#utility.yul\":2059:2071   */\n      revert\n        /* \"#utility.yul\":2083:2205   */\n    tag_23:\n        /* \"#utility.yul\":2156:2180   */\n      tag_52\n        /* \"#utility.yul\":2174:2179   */\n      dup2\n        /* \"#utility.yul\":2156:2180   */\n      tag_45\n      jump\t// in\n    tag_52:\n        /* \"#utility.yul\":2149:2154   */\n      dup2\n        /* \"#utility.yul\":2146:2181   */\n      eq\n        /* \"#utility.yul\":2136:2199   */\n      tag_53\n      jumpi\n        /* \"#utility.yul\":2195:2196   */\n      0x00\n        /* \"#utility.yul\":2192:2193   */\n      dup1\n        /* \"#utility.yul\":2185:2197   */\n      revert\n        /* \"#utility.yul\":2136:2199   */\n    tag_53:\n        /* \"#utility.yul\":2083:2205   */\n      pop\n      jump\t// out\n\n    auxdata: 0xa2646970667358221220816e20081232c0e12513bf023f160d91ace93c47bb90d05fa12a07d207811a7364736f6c63430008070033\n}\n",
				"bytecode": {
					"linkReferences": {},
					"object": "60806040527f31323400000000000000000000000000000000000000000000000000000000006000806101000a81548162ffffff021916908360e81c021790555034801561004c57600080fd5b506102418061005c6000396000f3fe608060405234801561001057600080fd5b50600436106100365760003560e01c80633a7d22bc1461003b5780638ac41c271461006b575b600080fd5b610055600480360381019061005091906100dd565b610089565b6040516100629190610128565b60405180910390f35b6100736100b7565b6040516100809190610143565b60405180910390f35b60008060009054906101000a900460e81b82600381106100ac576100ab6101c0565b5b1a60f81b9050919050565b60008054906101000a900460e81b81565b6000813590506100d7816101f4565b92915050565b6000602082840312156100f3576100f26101ef565b5b6000610101848285016100c8565b91505092915050565b6101138161015e565b82525050565b6101228161018a565b82525050565b600060208201905061013d600083018461010a565b92915050565b60006020820190506101586000830184610119565b92915050565b60007fff0000000000000000000000000000000000000000000000000000000000000082169050919050565b60007fffffff000000000000000000000000000000000000000000000000000000000082169050919050565b6000819050919050565b7f4e487b7100000000000000000000000000000000000000000000000000000000600052603260045260246000fd5b600080fd5b6101fd816101b6565b811461020857600080fd5b5056fea2646970667358221220816e20081232c0e12513bf023f160d91ace93c47bb90d05fa12a07d207811a7364736f6c63430008070033",
					"opcodes": "PUSH1 0x80 PUSH1 0x40 MSTORE PUSH32 0x3132340000000000000000000000000000000000000000000000000000000000 PUSH1 0x0 DUP1 PUSH2 0x100 EXP DUP2 SLOAD DUP2 PUSH3 0xFFFFFF MUL NOT AND SWAP1 DUP4 PUSH1 0xE8 SHR MUL OR SWAP1 SSTORE POP CALLVALUE DUP1 ISZERO PUSH2 0x4C JUMPI PUSH1 0x0 DUP1 REVERT JUMPDEST POP PUSH2 0x241 DUP1 PUSH2 0x5C PUSH1 0x0 CODECOPY PUSH1 0x0 RETURN INVALID PUSH1 0x80 PUSH1 0x40 MSTORE CALLVALUE DUP1 ISZERO PUSH2 0x10 JUMPI PUSH1 0x0 DUP1 REVERT JUMPDEST POP PUSH1 0x4 CALLDATASIZE LT PUSH2 0x36 JUMPI PUSH1 0x0 CALLDATALOAD PUSH1 0xE0 SHR DUP1 PUSH4 0x3A7D22BC EQ PUSH2 0x3B JUMPI DUP1 PUSH4 0x8AC41C27 EQ PUSH2 0x6B JUMPI JUMPDEST PUSH1 0x0 DUP1 REVERT JUMPDEST PUSH2 0x55 PUSH1 0x4 DUP1 CALLDATASIZE SUB DUP2 ADD SWAP1 PUSH2 0x50 SWAP2 SWAP1 PUSH2 0xDD JUMP JUMPDEST PUSH2 0x89 JUMP JUMPDEST PUSH1 0x40 MLOAD PUSH2 0x62 SWAP2 SWAP1 PUSH2 0x128 JUMP JUMPDEST PUSH1 0x40 MLOAD DUP1 SWAP2 SUB SWAP1 RETURN JUMPDEST PUSH2 0x73 PUSH2 0xB7 JUMP JUMPDEST PUSH1 0x40 MLOAD PUSH2 0x80 SWAP2 SWAP1 PUSH2 0x143 JUMP JUMPDEST PUSH1 0x40 MLOAD DUP1 SWAP2 SUB SWAP1 RETURN JUMPDEST PUSH1 0x0 DUP1 PUSH1 0x0 SWAP1 SLOAD SWAP1 PUSH2 0x100 EXP SWAP1 DIV PUSH1 0xE8 SHL DUP3 PUSH1 0x3 DUP2 LT PUSH2 0xAC JUMPI PUSH2 0xAB PUSH2 0x1C0 JUMP JUMPDEST JUMPDEST BYTE PUSH1 0xF8 SHL SWAP1 POP SWAP2 SWAP1 POP JUMP JUMPDEST PUSH1 0x0 DUP1 SLOAD SWAP1 PUSH2 0x100 EXP SWAP1 DIV PUSH1 0xE8 SHL DUP2 JUMP JUMPDEST PUSH1 0x0 DUP2 CALLDATALOAD SWAP1 POP PUSH2 0xD7 DUP2 PUSH2 0x1F4 JUMP JUMPDEST SWAP3 SWAP2 POP POP JUMP JUMPDEST PUSH1 0x0 PUSH1 0x20 DUP3 DUP5 SUB SLT ISZERO PUSH2 0xF3 JUMPI PUSH2 0xF2 PUSH2 0x1EF JUMP JUMPDEST JUMPDEST PUSH1 0x0 PUSH2 0x101 DUP5 DUP3 DUP6 ADD PUSH2 0xC8 JUMP JUMPDEST SWAP2 POP POP SWAP3 SWAP2 POP POP JUMP JUMPDEST PUSH2 0x113 DUP2 PUSH2 0x15E JUMP JUMPDEST DUP3 MSTORE POP POP JUMP JUMPDEST PUSH2 0x122 DUP2 PUSH2 0x18A JUMP JUMPDEST DUP3 MSTORE POP POP JUMP JUMPDEST PUSH1 0x0 PUSH1 0x20 DUP3 ADD SWAP1 POP PUSH2 0x13D PUSH1 0x0 DUP4 ADD DUP5 PUSH2 0x10A JUMP JUMPDEST SWAP3 SWAP2 POP POP JUMP JUMPDEST PUSH1 0x0 PUSH1 0x20 DUP3 ADD SWAP1 POP PUSH2 0x158 PUSH1 0x0 DUP4 ADD DUP5 PUSH2 0x119 JUMP JUMPDEST SWAP3 SWAP2 POP POP JUMP JUMPDEST PUSH1 0x0 PUSH32 0xFF00000000000000000000000000000000000000000000000000000000000000 DUP3 AND SWAP1 POP SWAP2 SWAP1 POP JUMP JUMPDEST PUSH1 0x0 PUSH32 0xFFFFFF0000000000000000000000000000000000000000000000000000000000 DUP3 AND SWAP1 POP SWAP2 SWAP1 POP JUMP JUMPDEST PUSH1 0x0 DUP2 SWAP1 POP SWAP2 SWAP1 POP JUMP JUMPDEST PUSH32 0x4E487B7100000000000000000000000000000000000000000000000000000000 PUSH1 0x0 MSTORE PUSH1 0x32 PUSH1 0x4 MSTORE PUSH1 0x24 PUSH1 0x0 REVERT JUMPDEST PUSH1 0x0 DUP1 REVERT JUMPDEST PUSH2 0x1FD DUP2 PUSH2 0x1B6 JUMP JUMPDEST DUP2 EQ PUSH2 0x208 JUMPI PUSH1 0x0 DUP1 REVERT JUMPDEST POP JUMP INVALID LOG2 PUSH5 0x6970667358 0x22 SLT KECCAK256 DUP2 PUSH15 0x20081232C0E12513BF023F160D91AC 0xE9 EXTCODECOPY SELFBALANCE 0xBB SWAP1 0xD0 0x5F LOG1 0x2A SMOD 0xD2 SMOD DUP2 BYTE PUSH20 0x64736F6C63430008070033000000000000000000 "
				},
				"gasEstimates": {
					"creation": {
						"codeDepositCost": "115400",
						"executionCost": "24432",
						"totalCost": "139832"
					},
					"external": {
						"getElement(uint256)": "2757",
						"myArray()": "2468"
					}
				},
				"methodIdentifiers": {
					"getElement(uint256)": "3a7d22bc",
					"myArray()": "8ac41c27"
				}
			},
			"storageLayout": {
				"storage": [
					{
						"astId": 4,
						"contract": "bytes.sol:bytesArray",
						"label": "myArray",
						"offset": 0,
						"slot": "0",
						"type": "t_bytes3"
					}
				],
				"types": {
					"t_bytes3": {
						"encoding": "inplace",
						"label": "bytes3",
						"numberOfBytes": "3"
					}
				}
			},
			"userdoc": {
				"kind": "user",
				"methods": {},
				"version": 1
			}
		}
	}
}