{
	"struct.sol": {
		"structure": {
			"abi": [
				{
					"inputs": [],
					"name": "getValueName",
					"outputs": [
						{
							"internalType": "string",
							"name": "",
							"type": "string"
						}
					],
					"stateMutability": "view",
					"type": "function"
				},
				{
					"inputs": [],
					"name": "getValueOfAge",
					"outputs": [
						{
							"internalType": "uint256",
							"name": "",
							"type": "uint256"
						}
					],
					"stateMutability": "view",
					"type": "function"
				},
				{
					"inputs": [
						{
							"internalType": "string",
							"name": "name",
							"type": "string"
						},
						{
							"internalType": "uint256",
							"name": "age",
							"type": "uint256"
						}
					],
					"name": "setValues",
					"outputs": [],
					"stateMutability": "nonpayable",
					"type": "function"
				}
			],
			"devdoc": {
				"kind": "dev",
				"methods": {},
				"version": 1
			},
			"evm": {
				"assembly": "    /* \"struct.sol\":74:499  contract structure{\r... */\n  mstore(0x40, 0x80)\n  callvalue\n  dup1\n  iszero\n  tag_1\n  jumpi\n  0x00\n  dup1\n  revert\ntag_1:\n  pop\n  dataSize(sub_0)\n  dup1\n  dataOffset(sub_0)\n  0x00\n  codecopy\n  0x00\n  return\nstop\n\nsub_0: assembly {\n        /* \"struct.sol\":74:499  contract structure{\r... */\n      mstore(0x40, 0x80)\n      callvalue\n      dup1\n      iszero\n      tag_1\n      jumpi\n      0x00\n      dup1\n      revert\n    tag_1:\n      pop\n      jumpi(tag_2, lt(calldatasize, 0x04))\n      shr(0xe0, calldataload(0x00))\n      dup1\n      0x8762d4f0\n      eq\n      tag_3\n      jumpi\n      dup1\n      0xecd34bcc\n      eq\n      tag_4\n      jumpi\n      dup1\n      0xf036e608\n      eq\n      tag_5\n      jumpi\n    tag_2:\n      0x00\n      dup1\n      revert\n        /* \"struct.sol\":399:494  function getValueName() public view returns(string memory){\r... */\n    tag_3:\n      tag_6\n      tag_7\n      jump\t// in\n    tag_6:\n      mload(0x40)\n      tag_8\n      swap2\n      swap1\n      tag_9\n      jump\t// in\n    tag_8:\n      mload(0x40)\n      dup1\n      swap2\n      sub\n      swap1\n      return\n        /* \"struct.sol\":305:391  function getValueOfAge() public view returns(uint){\r... */\n    tag_4:\n      tag_10\n      tag_11\n      jump\t// in\n    tag_10:\n      mload(0x40)\n      tag_12\n      swap2\n      swap1\n      tag_13\n      jump\t// in\n    tag_12:\n      mload(0x40)\n      dup1\n      swap2\n      sub\n      swap1\n      return\n        /* \"struct.sol\":195:297  function setValues(string memory name, uint age) public{\r... */\n    tag_5:\n      tag_14\n      0x04\n      dup1\n      calldatasize\n      sub\n      dup2\n      add\n      swap1\n      tag_15\n      swap2\n      swap1\n      tag_16\n      jump\t// in\n    tag_15:\n      tag_17\n      jump\t// in\n    tag_14:\n      stop\n        /* \"struct.sol\":399:494  function getValueName() public view returns(string memory){\r... */\n    tag_7:\n        /* \"struct.sol\":443:456  string memory */\n      0x60\n        /* \"struct.sol\":475:481  object */\n      0x00\n        /* \"struct.sol\":475:486  object.name */\n      0x01\n      add\n        /* \"struct.sol\":468:486  return object.name */\n      dup1\n      sload\n      tag_19\n      swap1\n      tag_20\n      jump\t// in\n    tag_19:\n      dup1\n      0x1f\n      add\n      0x20\n      dup1\n      swap2\n      div\n      mul\n      0x20\n      add\n      mload(0x40)\n      swap1\n      dup2\n      add\n      0x40\n      mstore\n      dup1\n      swap3\n      swap2\n      swap1\n      dup2\n      dup2\n      mstore\n      0x20\n      add\n      dup3\n      dup1\n      sload\n      tag_21\n      swap1\n      tag_20\n      jump\t// in\n    tag_21:\n      dup1\n      iszero\n      tag_22\n      jumpi\n      dup1\n      0x1f\n      lt\n      tag_23\n      jumpi\n      0x0100\n      dup1\n      dup4\n      sload\n      div\n      mul\n      dup4\n      mstore\n      swap2\n      0x20\n      add\n      swap2\n      jump(tag_22)\n    tag_23:\n      dup3\n      add\n      swap2\n      swap1\n      0x00\n      mstore\n      keccak256(0x00, 0x20)\n      swap1\n    tag_24:\n      dup2\n      sload\n      dup2\n      mstore\n      swap1\n      0x01\n      add\n      swap1\n      0x20\n      add\n      dup1\n      dup4\n      gt\n      tag_24\n      jumpi\n      dup3\n      swap1\n      sub\n      0x1f\n      and\n      dup3\n      add\n      swap2\n    tag_22:\n      pop\n      pop\n      pop\n      pop\n      pop\n      swap1\n      pop\n        /* \"struct.sol\":399:494  function getValueName() public view returns(string memory){\r... */\n      swap1\n      jump\t// out\n        /* \"struct.sol\":305:391  function getValueOfAge() public view returns(uint){\r... */\n    tag_11:\n        /* \"struct.sol\":350:354  uint */\n      0x00\n        /* \"struct.sol\":373:379  object */\n      dup1\n        /* \"struct.sol\":373:383  object.age */\n      0x00\n      add\n      sload\n        /* \"struct.sol\":366:383  return object.age */\n      swap1\n      pop\n        /* \"struct.sol\":305:391  function getValueOfAge() public view returns(uint){\r... */\n      swap1\n      jump\t// out\n        /* \"struct.sol\":195:297  function setValues(string memory name, uint age) public{\r... */\n    tag_17:\n        /* \"struct.sol\":270:289  myStruct(age, name) */\n      mload(0x40)\n      dup1\n      0x40\n      add\n      0x40\n      mstore\n      dup1\n        /* \"struct.sol\":279:282  age */\n      dup3\n        /* \"struct.sol\":270:289  myStruct(age, name) */\n      dup2\n      mstore\n      0x20\n      add\n        /* \"struct.sol\":284:288  name */\n      dup4\n        /* \"struct.sol\":270:289  myStruct(age, name) */\n      dup2\n      mstore\n      pop\n        /* \"struct.sol\":261:267  object */\n      0x00\n        /* \"struct.sol\":261:289  object = myStruct(age, name) */\n      dup1\n      dup3\n      add\n      mload\n      dup2\n      0x00\n      add\n      sstore\n      0x20\n      dup3\n      add\n      mload\n      dup2\n      0x01\n      add\n      swap1\n      dup1\n      mload\n      swap1\n      0x20\n      add\n      swap1\n      tag_27\n      swap3\n      swap2\n      swap1\n      tag_28\n      jump\t// in\n    tag_27:\n      pop\n      swap1\n      pop\n      pop\n        /* \"struct.sol\":195:297  function setValues(string memory name, uint age) public{\r... */\n      pop\n      pop\n      jump\t// out\n    tag_28:\n      dup3\n      dup1\n      sload\n      tag_29\n      swap1\n      tag_20\n      jump\t// in\n    tag_29:\n      swap1\n      0x00\n      mstore\n      keccak256(0x00, 0x20)\n      swap1\n      0x1f\n      add\n      0x20\n      swap1\n      div\n      dup2\n      add\n      swap3\n      dup3\n      tag_31\n      jumpi\n      0x00\n      dup6\n      sstore\n      jump(tag_30)\n    tag_31:\n      dup3\n      0x1f\n      lt\n      tag_32\n      jumpi\n      dup1\n      mload\n      not(0xff)\n      and\n      dup4\n      dup1\n      add\n      or\n      dup6\n      sstore\n      jump(tag_30)\n    tag_32:\n      dup3\n      dup1\n      add\n      0x01\n      add\n      dup6\n      sstore\n      dup3\n      iszero\n      tag_30\n      jumpi\n      swap2\n      dup3\n      add\n    tag_33:\n      dup3\n      dup2\n      gt\n      iszero\n      tag_34\n      jumpi\n      dup3\n      mload\n      dup3\n      sstore\n      swap2\n      0x20\n      add\n      swap2\n      swap1\n      0x01\n      add\n      swap1\n      jump(tag_33)\n    tag_34:\n    tag_30:\n      pop\n      swap1\n      pop\n      tag_35\n      swap2\n      swap1\n      tag_36\n      jump\t// in\n    tag_35:\n      pop\n      swap1\n      jump\t// out\n    tag_36:\n    tag_37:\n      dup1\n      dup3\n      gt\n      iszero\n      tag_38\n      jumpi\n      0x00\n      dup2\n      0x00\n      swap1\n      sstore\n      pop\n      0x01\n      add\n      jump(tag_37)\n    tag_38:\n      pop\n      swap1\n      jump\t// out\n        /* \"#utility.yul\":7:419   */\n    tag_40:\n        /* \"#utility.yul\":85:90   */\n      0x00\n        /* \"#utility.yul\":110:176   */\n      tag_42\n        /* \"#utility.yul\":126:175   */\n      tag_43\n        /* \"#utility.yul\":168:174   */\n      dup5\n        /* \"#utility.yul\":126:175   */\n      tag_44\n      jump\t// in\n    tag_43:\n        /* \"#utility.yul\":110:176   */\n      tag_45\n      jump\t// in\n    tag_42:\n        /* \"#utility.yul\":101:176   */\n      swap1\n      pop\n        /* \"#utility.yul\":199:205   */\n      dup3\n        /* \"#utility.yul\":192:197   */\n      dup2\n        /* \"#utility.yul\":185:206   */\n      mstore\n        /* \"#utility.yul\":237:241   */\n      0x20\n        /* \"#utility.yul\":230:235   */\n      dup2\n        /* \"#utility.yul\":226:242   */\n      add\n        /* \"#utility.yul\":275:278   */\n      dup5\n        /* \"#utility.yul\":266:272   */\n      dup5\n        /* \"#utility.yul\":261:264   */\n      dup5\n        /* \"#utility.yul\":257:273   */\n      add\n        /* \"#utility.yul\":254:279   */\n      gt\n        /* \"#utility.yul\":251:363   */\n      iszero\n      tag_46\n      jumpi\n        /* \"#utility.yul\":282:361   */\n      tag_47\n      tag_48\n      jump\t// in\n    tag_47:\n        /* \"#utility.yul\":251:363   */\n    tag_46:\n        /* \"#utility.yul\":372:413   */\n      tag_49\n        /* \"#utility.yul\":406:412   */\n      dup5\n        /* \"#utility.yul\":401:404   */\n      dup3\n        /* \"#utility.yul\":396:399   */\n      dup6\n        /* \"#utility.yul\":372:413   */\n      tag_50\n      jump\t// in\n    tag_49:\n        /* \"#utility.yul\":91:419   */\n      pop\n        /* \"#utility.yul\":7:419   */\n      swap4\n      swap3\n      pop\n      pop\n      pop\n      jump\t// out\n        /* \"#utility.yul\":439:779   */\n    tag_51:\n        /* \"#utility.yul\":495:500   */\n      0x00\n        /* \"#utility.yul\":544:547   */\n      dup3\n        /* \"#utility.yul\":537:541   */\n      0x1f\n        /* \"#utility.yul\":529:535   */\n      dup4\n        /* \"#utility.yul\":525:542   */\n      add\n        /* \"#utility.yul\":521:548   */\n      slt\n        /* \"#utility.yul\":511:633   */\n      tag_53\n      jumpi\n        /* \"#utility.yul\":552:631   */\n      tag_54\n      tag_55\n      jump\t// in\n    tag_54:\n        /* \"#utility.yul\":511:633   */\n    tag_53:\n        /* \"#utility.yul\":669:675   */\n      dup2\n        /* \"#utility.yul\":656:676   */\n      calldataload\n        /* \"#utility.yul\":694:773   */\n      tag_56\n        /* \"#utility.yul\":769:772   */\n      dup5\n        /* \"#utility.yul\":761:767   */\n      dup3\n        /* \"#utility.yul\":754:758   */\n      0x20\n        /* \"#utility.yul\":746:752   */\n      dup7\n        /* \"#utility.yul\":742:759   */\n      add\n        /* \"#utility.yul\":694:773   */\n      tag_40\n      jump\t// in\n    tag_56:\n        /* \"#utility.yul\":685:773   */\n      swap2\n      pop\n        /* \"#utility.yul\":501:779   */\n      pop\n        /* \"#utility.yul\":439:779   */\n      swap3\n      swap2\n      pop\n      pop\n      jump\t// out\n        /* \"#utility.yul\":785:924   */\n    tag_57:\n        /* \"#utility.yul\":831:836   */\n      0x00\n        /* \"#utility.yul\":869:875   */\n      dup2\n        /* \"#utility.yul\":856:876   */\n      calldataload\n        /* \"#utility.yul\":847:876   */\n      swap1\n      pop\n        /* \"#utility.yul\":885:918   */\n      tag_59\n        /* \"#utility.yul\":912:917   */\n      dup2\n        /* \"#utility.yul\":885:918   */\n      tag_60\n      jump\t// in\n    tag_59:\n        /* \"#utility.yul\":785:924   */\n      swap3\n      swap2\n      pop\n      pop\n      jump\t// out\n        /* \"#utility.yul\":930:1584   */\n    tag_16:\n        /* \"#utility.yul\":1008:1014   */\n      0x00\n        /* \"#utility.yul\":1016:1022   */\n      dup1\n        /* \"#utility.yul\":1065:1067   */\n      0x40\n        /* \"#utility.yul\":1053:1062   */\n      dup4\n        /* \"#utility.yul\":1044:1051   */\n      dup6\n        /* \"#utility.yul\":1040:1063   */\n      sub\n        /* \"#utility.yul\":1036:1068   */\n      slt\n        /* \"#utility.yul\":1033:1152   */\n      iszero\n      tag_62\n      jumpi\n        /* \"#utility.yul\":1071:1150   */\n      tag_63\n      tag_64\n      jump\t// in\n    tag_63:\n        /* \"#utility.yul\":1033:1152   */\n    tag_62:\n        /* \"#utility.yul\":1219:1220   */\n      0x00\n        /* \"#utility.yul\":1208:1217   */\n      dup4\n        /* \"#utility.yul\":1204:1221   */\n      add\n        /* \"#utility.yul\":1191:1222   */\n      calldataload\n        /* \"#utility.yul\":1249:1267   */\n      0xffffffffffffffff\n        /* \"#utility.yul\":1241:1247   */\n      dup2\n        /* \"#utility.yul\":1238:1268   */\n      gt\n        /* \"#utility.yul\":1235:1352   */\n      iszero\n      tag_65\n      jumpi\n        /* \"#utility.yul\":1271:1350   */\n      tag_66\n      tag_67\n      jump\t// in\n    tag_66:\n        /* \"#utility.yul\":1235:1352   */\n    tag_65:\n        /* \"#utility.yul\":1376:1439   */\n      tag_68\n        /* \"#utility.yul\":1431:1438   */\n      dup6\n        /* \"#utility.yul\":1422:1428   */\n      dup3\n        /* \"#utility.yul\":1411:1420   */\n      dup7\n        /* \"#utility.yul\":1407:1429   */\n      add\n        /* \"#utility.yul\":1376:1439   */\n      tag_51\n      jump\t// in\n    tag_68:\n        /* \"#utility.yul\":1366:1439   */\n      swap3\n      pop\n        /* \"#utility.yul\":1162:1449   */\n      pop\n        /* \"#utility.yul\":1488:1490   */\n      0x20\n        /* \"#utility.yul\":1514:1567   */\n      tag_69\n        /* \"#utility.yul\":1559:1566   */\n      dup6\n        /* \"#utility.yul\":1550:1556   */\n      dup3\n        /* \"#utility.yul\":1539:1548   */\n      dup7\n        /* \"#utility.yul\":1535:1557   */\n      add\n        /* \"#utility.yul\":1514:1567   */\n      tag_57\n      jump\t// in\n    tag_69:\n        /* \"#utility.yul\":1504:1567   */\n      swap2\n      pop\n        /* \"#utility.yul\":1459:1577   */\n      pop\n        /* \"#utility.yul\":930:1584   */\n      swap3\n      pop\n      swap3\n      swap1\n      pop\n      jump\t// out\n        /* \"#utility.yul\":1590:1954   */\n    tag_70:\n        /* \"#utility.yul\":1678:1681   */\n      0x00\n        /* \"#utility.yul\":1706:1745   */\n      tag_72\n        /* \"#utility.yul\":1739:1744   */\n      dup3\n        /* \"#utility.yul\":1706:1745   */\n      tag_73\n      jump\t// in\n    tag_72:\n        /* \"#utility.yul\":1761:1832   */\n      tag_74\n        /* \"#utility.yul\":1825:1831   */\n      dup2\n        /* \"#utility.yul\":1820:1823   */\n      dup6\n        /* \"#utility.yul\":1761:1832   */\n      tag_75\n      jump\t// in\n    tag_74:\n        /* \"#utility.yul\":1754:1832   */\n      swap4\n      pop\n        /* \"#utility.yul\":1841:1893   */\n      tag_76\n        /* \"#utility.yul\":1886:1892   */\n      dup2\n        /* \"#utility.yul\":1881:1884   */\n      dup6\n        /* \"#utility.yul\":1874:1878   */\n      0x20\n        /* \"#utility.yul\":1867:1872   */\n      dup7\n        /* \"#utility.yul\":1863:1879   */\n      add\n        /* \"#utility.yul\":1841:1893   */\n      tag_77\n      jump\t// in\n    tag_76:\n        /* \"#utility.yul\":1918:1947   */\n      tag_78\n        /* \"#utility.yul\":1940:1946   */\n      dup2\n        /* \"#utility.yul\":1918:1947   */\n      tag_79\n      jump\t// in\n    tag_78:\n        /* \"#utility.yul\":1913:1916   */\n      dup5\n        /* \"#utility.yul\":1909:1948   */\n      add\n        /* \"#utility.yul\":1902:1948   */\n      swap2\n      pop\n        /* \"#utility.yul\":1682:1954   */\n      pop\n        /* \"#utility.yul\":1590:1954   */\n      swap3\n      swap2\n      pop\n      pop\n      jump\t// out\n        /* \"#utility.yul\":1960:2078   */\n    tag_80:\n        /* \"#utility.yul\":2047:2071   */\n      tag_82\n        /* \"#utility.yul\":2065:2070   */\n      dup2\n        /* \"#utility.yul\":2047:2071   */\n      tag_83\n      jump\t// in\n    tag_82:\n        /* \"#utility.yul\":2042:2045   */\n      dup3\n        /* \"#utility.yul\":2035:2072   */\n      mstore\n        /* \"#utility.yul\":1960:2078   */\n      pop\n      pop\n      jump\t// out\n        /* \"#utility.yul\":2084:2397   */\n    tag_9:\n        /* \"#utility.yul\":2197:2201   */\n      0x00\n        /* \"#utility.yul\":2235:2237   */\n      0x20\n        /* \"#utility.yul\":2224:2233   */\n      dup3\n        /* \"#utility.yul\":2220:2238   */\n      add\n        /* \"#utility.yul\":2212:2238   */\n      swap1\n      pop\n        /* \"#utility.yul\":2284:2293   */\n      dup2\n        /* \"#utility.yul\":2278:2282   */\n      dup2\n        /* \"#utility.yul\":2274:2294   */\n      sub\n        /* \"#utility.yul\":2270:2271   */\n      0x00\n        /* \"#utility.yul\":2259:2268   */\n      dup4\n        /* \"#utility.yul\":2255:2272   */\n      add\n        /* \"#utility.yul\":2248:2295   */\n      mstore\n        /* \"#utility.yul\":2312:2390   */\n      tag_85\n        /* \"#utility.yul\":2385:2389   */\n      dup2\n        /* \"#utility.yul\":2376:2382   */\n      dup5\n        /* \"#utility.yul\":2312:2390   */\n      tag_70\n      jump\t// in\n    tag_85:\n        /* \"#utility.yul\":2304:2390   */\n      swap1\n      pop\n        /* \"#utility.yul\":2084:2397   */\n      swap3\n      swap2\n      pop\n      pop\n      jump\t// out\n        /* \"#utility.yul\":2403:2625   */\n    tag_13:\n        /* \"#utility.yul\":2496:2500   */\n      0x00\n        /* \"#utility.yul\":2534:2536   */\n      0x20\n        /* \"#utility.yul\":2523:2532   */\n      dup3\n        /* \"#utility.yul\":2519:2537   */\n      add\n        /* \"#utility.yul\":2511:2537   */\n      swap1\n      pop\n        /* \"#utility.yul\":2547:2618   */\n      tag_87\n        /* \"#utility.yul\":2615:2616   */\n      0x00\n        /* \"#utility.yul\":2604:2613   */\n      dup4\n        /* \"#utility.yul\":2600:2617   */\n      add\n        /* \"#utility.yul\":2591:2597   */\n      dup5\n        /* \"#utility.yul\":2547:2618   */\n      tag_80\n      jump\t// in\n    tag_87:\n        /* \"#utility.yul\":2403:2625   */\n      swap3\n      swap2\n      pop\n      pop\n      jump\t// out\n        /* \"#utility.yul\":2631:2760   */\n    tag_45:\n        /* \"#utility.yul\":2665:2671   */\n      0x00\n        /* \"#utility.yul\":2692:2712   */\n      tag_89\n      tag_90\n      jump\t// in\n    tag_89:\n        /* \"#utility.yul\":2682:2712   */\n      swap1\n      pop\n        /* \"#utility.yul\":2721:2754   */\n      tag_91\n        /* \"#utility.yul\":2749:2753   */\n      dup3\n        /* \"#utility.yul\":2741:2747   */\n      dup3\n        /* \"#utility.yul\":2721:2754   */\n      tag_92\n      jump\t// in\n    tag_91:\n        /* \"#utility.yul\":2631:2760   */\n      swap2\n      swap1\n      pop\n      jump\t// out\n        /* \"#utility.yul\":2766:2841   */\n    tag_90:\n        /* \"#utility.yul\":2799:2805   */\n      0x00\n        /* \"#utility.yul\":2832:2834   */\n      0x40\n        /* \"#utility.yul\":2826:2835   */\n      mload\n        /* \"#utility.yul\":2816:2835   */\n      swap1\n      pop\n        /* \"#utility.yul\":2766:2841   */\n      swap1\n      jump\t// out\n        /* \"#utility.yul\":2847:3155   */\n    tag_44:\n        /* \"#utility.yul\":2909:2913   */\n      0x00\n        /* \"#utility.yul\":2999:3017   */\n      0xffffffffffffffff\n        /* \"#utility.yul\":2991:2997   */\n      dup3\n        /* \"#utility.yul\":2988:3018   */\n      gt\n        /* \"#utility.yul\":2985:3041   */\n      iszero\n      tag_95\n      jumpi\n        /* \"#utility.yul\":3021:3039   */\n      tag_96\n      tag_97\n      jump\t// in\n    tag_96:\n        /* \"#utility.yul\":2985:3041   */\n    tag_95:\n        /* \"#utility.yul\":3059:3088   */\n      tag_98\n        /* \"#utility.yul\":3081:3087   */\n      dup3\n        /* \"#utility.yul\":3059:3088   */\n      tag_79\n      jump\t// in\n    tag_98:\n        /* \"#utility.yul\":3051:3088   */\n      swap1\n      pop\n        /* \"#utility.yul\":3143:3147   */\n      0x20\n        /* \"#utility.yul\":3137:3141   */\n      dup2\n        /* \"#utility.yul\":3133:3148   */\n      add\n        /* \"#utility.yul\":3125:3148   */\n      swap1\n      pop\n        /* \"#utility.yul\":2847:3155   */\n      swap2\n      swap1\n      pop\n      jump\t// out\n        /* \"#utility.yul\":3161:3260   */\n    tag_73:\n        /* \"#utility.yul\":3213:3219   */\n      0x00\n        /* \"#utility.yul\":3247:3252   */\n      dup2\n        /* \"#utility.yul\":3241:3253   */\n      mload\n        /* \"#utility.yul\":3231:3253   */\n      swap1\n      pop\n        /* \"#utility.yul\":3161:3260   */\n      swap2\n      swap1\n      pop\n      jump\t// out\n        /* \"#utility.yul\":3266:3435   */\n    tag_75:\n        /* \"#utility.yul\":3350:3361   */\n      0x00\n        /* \"#utility.yul\":3384:3390   */\n      dup3\n        /* \"#utility.yul\":3379:3382   */\n      dup3\n        /* \"#utility.yul\":3372:3391   */\n      mstore\n        /* \"#utility.yul\":3424:3428   */\n      0x20\n        /* \"#utility.yul\":3419:3422   */\n      dup3\n        /* \"#utility.yul\":3415:3429   */\n      add\n        /* \"#utility.yul\":3400:3429   */\n      swap1\n      pop\n        /* \"#utility.yul\":3266:3435   */\n      swap3\n      swap2\n      pop\n      pop\n      jump\t// out\n        /* \"#utility.yul\":3441:3518   */\n    tag_83:\n        /* \"#utility.yul\":3478:3485   */\n      0x00\n        /* \"#utility.yul\":3507:3512   */\n      dup2\n        /* \"#utility.yul\":3496:3512   */\n      swap1\n      pop\n        /* \"#utility.yul\":3441:3518   */\n      swap2\n      swap1\n      pop\n      jump\t// out\n        /* \"#utility.yul\":3524:3678   */\n    tag_50:\n        /* \"#utility.yul\":3608:3614   */\n      dup3\n        /* \"#utility.yul\":3603:3606   */\n      dup2\n        /* \"#utility.yul\":3598:3601   */\n      dup4\n        /* \"#utility.yul\":3585:3615   */\n      calldatacopy\n        /* \"#utility.yul\":3670:3671   */\n      0x00\n        /* \"#utility.yul\":3661:3667   */\n      dup4\n        /* \"#utility.yul\":3656:3659   */\n      dup4\n        /* \"#utility.yul\":3652:3668   */\n      add\n        /* \"#utility.yul\":3645:3672   */\n      mstore\n        /* \"#utility.yul\":3524:3678   */\n      pop\n      pop\n      pop\n      jump\t// out\n        /* \"#utility.yul\":3684:3991   */\n    tag_77:\n        /* \"#utility.yul\":3752:3753   */\n      0x00\n        /* \"#utility.yul\":3762:3875   */\n    tag_104:\n        /* \"#utility.yul\":3776:3782   */\n      dup4\n        /* \"#utility.yul\":3773:3774   */\n      dup2\n        /* \"#utility.yul\":3770:3783   */\n      lt\n        /* \"#utility.yul\":3762:3875   */\n      iszero\n      tag_106\n      jumpi\n        /* \"#utility.yul\":3861:3862   */\n      dup1\n        /* \"#utility.yul\":3856:3859   */\n      dup3\n        /* \"#utility.yul\":3852:3863   */\n      add\n        /* \"#utility.yul\":3846:3864   */\n      mload\n        /* \"#utility.yul\":3842:3843   */\n      dup2\n        /* \"#utility.yul\":3837:3840   */\n      dup5\n        /* \"#utility.yul\":3833:3844   */\n      add\n        /* \"#utility.yul\":3826:3865   */\n      mstore\n        /* \"#utility.yul\":3798:3800   */\n      0x20\n        /* \"#utility.yul\":3795:3796   */\n      dup2\n        /* \"#utility.yul\":3791:3801   */\n      add\n        /* \"#utility.yul\":3786:3801   */\n      swap1\n      pop\n        /* \"#utility.yul\":3762:3875   */\n      jump(tag_104)\n    tag_106:\n        /* \"#utility.yul\":3893:3899   */\n      dup4\n        /* \"#utility.yul\":3890:3891   */\n      dup2\n        /* \"#utility.yul\":3887:3900   */\n      gt\n        /* \"#utility.yul\":3884:3985   */\n      iszero\n      tag_107\n      jumpi\n        /* \"#utility.yul\":3973:3974   */\n      0x00\n        /* \"#utility.yul\":3964:3970   */\n      dup5\n        /* \"#utility.yul\":3959:3962   */\n      dup5\n        /* \"#utility.yul\":3955:3971   */\n      add\n        /* \"#utility.yul\":3948:3975   */\n      mstore\n        /* \"#utility.yul\":3884:3985   */\n    tag_107:\n        /* \"#utility.yul\":3733:3991   */\n      pop\n        /* \"#utility.yul\":3684:3991   */\n      pop\n      pop\n      pop\n      jump\t// out\n        /* \"#utility.yul\":3997:4317   */\n    tag_20:\n        /* \"#utility.yul\":4041:4047   */\n      0x00\n        /* \"#utility.yul\":4078:4079   */\n      0x02\n        /* \"#utility.yul\":4072:4076   */\n      dup3\n        /* \"#utility.yul\":4068:4080   */\n      div\n        /* \"#utility.yul\":4058:4080   */\n      swap1\n      pop\n        /* \"#utility.yul\":4125:4126   */\n      0x01\n        /* \"#utility.yul\":4119:4123   */\n      dup3\n        /* \"#utility.yul\":4115:4127   */\n      and\n        /* \"#utility.yul\":4146:4164   */\n      dup1\n        /* \"#utility.yul\":4136:4217   */\n      tag_109\n      jumpi\n        /* \"#utility.yul\":4202:4206   */\n      0x7f\n        /* \"#utility.yul\":4194:4200   */\n      dup3\n        /* \"#utility.yul\":4190:4207   */\n      and\n        /* \"#utility.yul\":4180:4207   */\n      swap2\n      pop\n        /* \"#utility.yul\":4136:4217   */\n    tag_109:\n        /* \"#utility.yul\":4264:4266   */\n      0x20\n        /* \"#utility.yul\":4256:4262   */\n      dup3\n        /* \"#utility.yul\":4253:4267   */\n      lt\n        /* \"#utility.yul\":4233:4251   */\n      dup2\n        /* \"#utility.yul\":4230:4268   */\n      eq\n        /* \"#utility.yul\":4227:4311   */\n      iszero\n      tag_110\n      jumpi\n        /* \"#utility.yul\":4283:4301   */\n      tag_111\n      tag_112\n      jump\t// in\n    tag_111:\n        /* \"#utility.yul\":4227:4311   */\n    tag_110:\n        /* \"#utility.yul\":4048:4317   */\n      pop\n        /* \"#utility.yul\":3997:4317   */\n      swap2\n      swap1\n      pop\n      jump\t// out\n        /* \"#utility.yul\":4323:4604   */\n    tag_92:\n        /* \"#utility.yul\":4406:4433   */\n      tag_114\n        /* \"#utility.yul\":4428:4432   */\n      dup3\n        /* \"#utility.yul\":4406:4433   */\n      tag_79\n      jump\t// in\n    tag_114:\n        /* \"#utility.yul\":4398:4404   */\n      dup2\n        /* \"#utility.yul\":4394:4434   */\n      add\n        /* \"#utility.yul\":4536:4542   */\n      dup2\n        /* \"#utility.yul\":4524:4534   */\n      dup2\n        /* \"#utility.yul\":4521:4543   */\n      lt\n        /* \"#utility.yul\":4500:4518   */\n      0xffffffffffffffff\n        /* \"#utility.yul\":4488:4498   */\n      dup3\n        /* \"#utility.yul\":4485:4519   */\n      gt\n        /* \"#utility.yul\":4482:4544   */\n      or\n        /* \"#utility.yul\":4479:4567   */\n      iszero\n      tag_115\n      jumpi\n        /* \"#utility.yul\":4547:4565   */\n      tag_116\n      tag_97\n      jump\t// in\n    tag_116:\n        /* \"#utility.yul\":4479:4567   */\n    tag_115:\n        /* \"#utility.yul\":4587:4597   */\n      dup1\n        /* \"#utility.yul\":4583:4585   */\n      0x40\n        /* \"#utility.yul\":4576:4598   */\n      mstore\n        /* \"#utility.yul\":4366:4604   */\n      pop\n        /* \"#utility.yul\":4323:4604   */\n      pop\n      pop\n      jump\t// out\n        /* \"#utility.yul\":4610:4790   */\n    tag_112:\n        /* \"#utility.yul\":4658:4735   */\n      0x4e487b7100000000000000000000000000000000000000000000000000000000\n        /* \"#utility.yul\":4655:4656   */\n      0x00\n        /* \"#utility.yul\":4648:4736   */\n      mstore\n        /* \"#utility.yul\":4755:4759   */\n      0x22\n        /* \"#utility.yul\":4752:4753   */\n      0x04\n        /* \"#utility.yul\":4745:4760   */\n      mstore\n        /* \"#utility.yul\":4779:4783   */\n      0x24\n        /* \"#utility.yul\":4776:4777   */\n      0x00\n        /* \"#utility.yul\":4769:4784   */\n      revert\n        /* \"#utility.yul\":4796:4976   */\n    tag_97:\n        /* \"#utility.yul\":4844:4921   */\n      0x4e487b7100000000000000000000000000000000000000000000000000000000\n        /* \"#utility.yul\":4841:4842   */\n      0x00\n        /* \"#utility.yul\":4834:4922   */\n      mstore\n        /* \"#utility.yul\":4941:4945   */\n      0x41\n        /* \"#utility.yul\":4938:4939   */\n      0x04\n        /* \"#utility.yul\":4931:4946   */\n      mstore\n        /* \"#utility.yul\":4965:4969   */\n      0x24\n        /* \"#utility.yul\":4962:4963   */\n      0x00\n        /* \"#utility.yul\":4955:4970   */\n      revert\n        /* \"#utility.yul\":4982:5099   */\n    tag_55:\n        /* \"#utility.yul\":5091:5092   */\n      0x00\n        /* \"#utility.yul\":5088:5089   */\n      dup1\n        /* \"#utility.yul\":5081:5093   */\n      revert\n        /* \"#utility.yul\":5105:5222   */\n    tag_48:\n        /* \"#utility.yul\":5214:5215   */\n      0x00\n        /* \"#utility.yul\":5211:5212   */\n      dup1\n        /* \"#utility.yul\":5204:5216   */\n      revert\n        /* \"#utility.yul\":5228:5345   */\n    tag_67:\n        /* \"#utility.yul\":5337:5338   */\n      0x00\n        /* \"#utility.yul\":5334:5335   */\n      dup1\n        /* \"#utility.yul\":5327:5339   */\n      revert\n        /* \"#utility.yul\":5351:5468   */\n    tag_64:\n        /* \"#utility.yul\":5460:5461   */\n      0x00\n        /* \"#utility.yul\":5457:5458   */\n      dup1\n        /* \"#utility.yul\":5450:5462   */\n      revert\n        /* \"#utility.yul\":5474:5576   */\n    tag_79:\n        /* \"#utility.yul\":5515:5521   */\n      0x00\n        /* \"#utility.yul\":5566:5568   */\n      0x1f\n        /* \"#utility.yul\":5562:5569   */\n      not\n        /* \"#utility.yul\":5557:5559   */\n      0x1f\n        /* \"#utility.yul\":5550:5555   */\n      dup4\n        /* \"#utility.yul\":5546:5560   */\n      add\n        /* \"#utility.yul\":5542:5570   */\n      and\n        /* \"#utility.yul\":5532:5570   */\n      swap1\n      pop\n        /* \"#utility.yul\":5474:5576   */\n      swap2\n      swap1\n      pop\n      jump\t// out\n        /* \"#utility.yul\":5582:5704   */\n    tag_60:\n        /* \"#utility.yul\":5655:5679   */\n      tag_125\n        /* \"#utility.yul\":5673:5678   */\n      dup2\n        /* \"#utility.yul\":5655:5679   */\n      tag_83\n      jump\t// in\n    tag_125:\n        /* \"#utility.yul\":5648:5653   */\n      dup2\n        /* \"#utility.yul\":5645:5680   */\n      eq\n        /* \"#utility.yul\":5635:5698   */\n      tag_126\n      jumpi\n        /* \"#utility.yul\":5694:5695   */\n      0x00\n        /* \"#utility.yul\":5691:5692   */\n      dup1\n        /* \"#utility.yul\":5684:5696   */\n      revert\n        /* \"#utility.yul\":5635:5698   */\n    tag_126:\n        /* \"#utility.yul\":5582:5704   */\n      pop\n      jump\t// out\n\n    auxdata: 0xa2646970667358221220589531447bf345bf259142bf62e6acb8a7848ea5d53f50f55f3ccaef046b137964736f6c63430008070033\n}\n",
				"bytecode": {
					"linkReferences": {},
					"object": "608060405234801561001057600080fd5b5061057d806100206000396000f3fe608060405234801561001057600080fd5b50600436106100415760003560e01c80638762d4f014610046578063ecd34bcc14610064578063f036e60814610082575b600080fd5b61004e61009e565b60405161005b919061034f565b60405180910390f35b61006c610133565b6040516100799190610371565b60405180910390f35b61009c600480360381019061009791906102ab565b61013f565b005b6060600060010180546100b09061044a565b80601f01602080910402602001604051908101604052809291908181526020018280546100dc9061044a565b80156101295780601f106100fe57610100808354040283529160200191610129565b820191906000526020600020905b81548152906001019060200180831161010c57829003601f168201915b5050505050905090565b60008060000154905090565b6040518060400160405280828152602001838152506000808201518160000155602082015181600101908051906020019061017b929190610183565b509050505050565b82805461018f9061044a565b90600052602060002090601f0160209004810192826101b157600085556101f8565b82601f106101ca57805160ff19168380011785556101f8565b828001600101855582156101f8579182015b828111156101f75782518255916020019190600101906101dc565b5b5090506102059190610209565b5090565b5b8082111561022257600081600090555060010161020a565b5090565b6000610239610234846103b1565b61038c565b90508281526020810184848401111561025557610254610510565b5b610260848285610408565b509392505050565b600082601f83011261027d5761027c61050b565b5b813561028d848260208601610226565b91505092915050565b6000813590506102a581610530565b92915050565b600080604083850312156102c2576102c161051a565b5b600083013567ffffffffffffffff8111156102e0576102df610515565b5b6102ec85828601610268565b92505060206102fd85828601610296565b9150509250929050565b6000610312826103e2565b61031c81856103ed565b935061032c818560208601610417565b6103358161051f565b840191505092915050565b610349816103fe565b82525050565b600060208201905081810360008301526103698184610307565b905092915050565b60006020820190506103866000830184610340565b92915050565b60006103966103a7565b90506103a2828261047c565b919050565b6000604051905090565b600067ffffffffffffffff8211156103cc576103cb6104dc565b5b6103d58261051f565b9050602081019050919050565b600081519050919050565b600082825260208201905092915050565b6000819050919050565b82818337600083830152505050565b60005b8381101561043557808201518184015260208101905061041a565b83811115610444576000848401525b50505050565b6000600282049050600182168061046257607f821691505b60208210811415610476576104756104ad565b5b50919050565b6104858261051f565b810181811067ffffffffffffffff821117156104a4576104a36104dc565b5b80604052505050565b7f4e487b7100000000000000000000000000000000000000000000000000000000600052602260045260246000fd5b7f4e487b7100000000000000000000000000000000000000000000000000000000600052604160045260246000fd5b600080fd5b600080fd5b600080fd5b600080fd5b6000601f19601f8301169050919050565b610539816103fe565b811461054457600080fd5b5056fea2646970667358221220589531447bf345bf259142bf62e6acb8a7848ea5d53f50f55f3ccaef046b137964736f6c63430008070033",
					"opcodes": "PUSH1 0x80 PUSH1 0x40 MSTORE CALLVALUE DUP1 ISZERO PUSH2 0x10 JUMPI PUSH1 0x0 DUP1 REVERT JUMPDEST POP PUSH2 0x57D DUP1 PUSH2 0x20 PUSH1 0x0 CODECOPY PUSH1 0x0 RETURN INVALID PUSH1 0x80 PUSH1 0x40 MSTORE CALLVALUE DUP1 ISZERO PUSH2 0x10 JUMPI PUSH1 0x0 DUP1 REVERT JUMPDEST POP PUSH1 0x4 CALLDATASIZE LT PUSH2 0x41 JUMPI PUSH1 0x0 CALLDATALOAD PUSH1 0xE0 SHR DUP1 PUSH4 0x8762D4F0 EQ PUSH2 0x46 JUMPI DUP1 PUSH4 0xECD34BCC EQ PUSH2 0x64 JUMPI DUP1 PUSH4 0xF036E608 EQ PUSH2 0x82 JUMPI JUMPDEST PUSH1 0x0 DUP1 REVERT JUMPDEST PUSH2 0x4E PUSH2 0x9E JUMP JUMPDEST PUSH1 0x40 MLOAD PUSH2 0x5B SWAP2 SWAP1 PUSH2 0x34F JUMP JUMPDEST PUSH1 0x40 MLOAD DUP1 SWAP2 SUB SWAP1 RETURN JUMPDEST PUSH2 0x6C PUSH2 0x133 JUMP JUMPDEST PUSH1 0x40 MLOAD PUSH2 0x79 SWAP2 SWAP1 PUSH2 0x371 JUMP JUMPDEST PUSH1 0x40 MLOAD DUP1 SWAP2 SUB SWAP1 RETURN JUMPDEST PUSH2 0x9C PUSH1 0x4 DUP1 CALLDATASIZE SUB DUP2 ADD SWAP1 PUSH2 0x97 SWAP2 SWAP1 PUSH2 0x2AB JUMP JUMPDEST PUSH2 0x13F JUMP JUMPDEST STOP JUMPDEST PUSH1 0x60 PUSH1 0x0 PUSH1 0x1 ADD DUP1 SLOAD PUSH2 0xB0 SWAP1 PUSH2 0x44A JUMP JUMPDEST DUP1 PUSH1 0x1F ADD PUSH1 0x20 DUP1 SWAP2 DIV MUL PUSH1 0x20 ADD PUSH1 0x40 MLOAD SWAP1 DUP2 ADD PUSH1 0x40 MSTORE DUP1 SWAP3 SWAP2 SWAP1 DUP2 DUP2 MSTORE PUSH1 0x20 ADD DUP3 DUP1 SLOAD PUSH2 0xDC SWAP1 PUSH2 0x44A JUMP JUMPDEST DUP1 ISZERO PUSH2 0x129 JUMPI DUP1 PUSH1 0x1F LT PUSH2 0xFE JUMPI PUSH2 0x100 DUP1 DUP4 SLOAD DIV MUL DUP4 MSTORE SWAP2 PUSH1 0x20 ADD SWAP2 PUSH2 0x129 JUMP JUMPDEST DUP3 ADD SWAP2 SWAP1 PUSH1 0x0 MSTORE PUSH1 0x20 PUSH1 0x0 KECCAK256 SWAP1 JUMPDEST DUP2 SLOAD DUP2 MSTORE SWAP1 PUSH1 0x1 ADD SWAP1 PUSH1 0x20 ADD DUP1 DUP4 GT PUSH2 0x10C JUMPI DUP3 SWAP1 SUB PUSH1 0x1F AND DUP3 ADD SWAP2 JUMPDEST POP POP POP POP POP SWAP1 POP SWAP1 JUMP JUMPDEST PUSH1 0x0 DUP1 PUSH1 0x0 ADD SLOAD SWAP1 POP SWAP1 JUMP JUMPDEST PUSH1 0x40 MLOAD DUP1 PUSH1 0x40 ADD PUSH1 0x40 MSTORE DUP1 DUP3 DUP2 MSTORE PUSH1 0x20 ADD DUP4 DUP2 MSTORE POP PUSH1 0x0 DUP1 DUP3 ADD MLOAD DUP2 PUSH1 0x0 ADD SSTORE PUSH1 0x20 DUP3 ADD MLOAD DUP2 PUSH1 0x1 ADD SWAP1 DUP1 MLOAD SWAP1 PUSH1 0x20 ADD SWAP1 PUSH2 0x17B SWAP3 SWAP2 SWAP1 PUSH2 0x183 JUMP JUMPDEST POP SWAP1 POP POP POP POP JUMP JUMPDEST DUP3 DUP1 SLOAD PUSH2 0x18F SWAP1 PUSH2 0x44A JUMP JUMPDEST SWAP1 PUSH1 0x0 MSTORE PUSH1 0x20 PUSH1 0x0 KECCAK256 SWAP1 PUSH1 0x1F ADD PUSH1 0x20 SWAP1 DIV DUP2 ADD SWAP3 DUP3 PUSH2 0x1B1 JUMPI PUSH1 0x0 DUP6 SSTORE PUSH2 0x1F8 JUMP JUMPDEST DUP3 PUSH1 0x1F LT PUSH2 0x1CA JUMPI DUP1 MLOAD PUSH1 0xFF NOT AND DUP4 DUP1 ADD OR DUP6 SSTORE PUSH2 0x1F8 JUMP JUMPDEST DUP3 DUP1 ADD PUSH1 0x1 ADD DUP6 SSTORE DUP3 ISZERO PUSH2 0x1F8 JUMPI SWAP2 DUP3 ADD JUMPDEST DUP3 DUP2 GT ISZERO PUSH2 0x1F7 JUMPI DUP3 MLOAD DUP3 SSTORE SWAP2 PUSH1 0x20 ADD SWAP2 SWAP1 PUSH1 0x1 ADD SWAP1 PUSH2 0x1DC JUMP JUMPDEST JUMPDEST POP SWAP1 POP PUSH2 0x205 SWAP2 SWAP1 PUSH2 0x209 JUMP JUMPDEST POP SWAP1 JUMP JUMPDEST JUMPDEST DUP1 DUP3 GT ISZERO PUSH2 0x222 JUMPI PUSH1 0x0 DUP2 PUSH1 0x0 SWAP1 SSTORE POP PUSH1 0x1 ADD PUSH2 0x20A JUMP JUMPDEST POP SWAP1 JUMP JUMPDEST PUSH1 0x0 PUSH2 0x239 PUSH2 0x234 DUP5 PUSH2 0x3B1 JUMP JUMPDEST PUSH2 0x38C JUMP JUMPDEST SWAP1 POP DUP3 DUP2 MSTORE PUSH1 0x20 DUP2 ADD DUP5 DUP5 DUP5 ADD GT ISZERO PUSH2 0x255 JUMPI PUSH2 0x254 PUSH2 0x510 JUMP JUMPDEST JUMPDEST PUSH2 0x260 DUP5 DUP3 DUP6 PUSH2 0x408 JUMP JUMPDEST POP SWAP4 SWAP3 POP POP POP JUMP JUMPDEST PUSH1 0x0 DUP3 PUSH1 0x1F DUP4 ADD SLT PUSH2 0x27D JUMPI PUSH2 0x27C PUSH2 0x50B JUMP JUMPDEST JUMPDEST DUP2 CALLDATALOAD PUSH2 0x28D DUP5 DUP3 PUSH1 0x20 DUP7 ADD PUSH2 0x226 JUMP JUMPDEST SWAP2 POP POP SWAP3 SWAP2 POP POP JUMP JUMPDEST PUSH1 0x0 DUP2 CALLDATALOAD SWAP1 POP PUSH2 0x2A5 DUP2 PUSH2 0x530 JUMP JUMPDEST SWAP3 SWAP2 POP POP JUMP JUMPDEST PUSH1 0x0 DUP1 PUSH1 0x40 DUP4 DUP6 SUB SLT ISZERO PUSH2 0x2C2 JUMPI PUSH2 0x2C1 PUSH2 0x51A JUMP JUMPDEST JUMPDEST PUSH1 0x0 DUP4 ADD CALLDATALOAD PUSH8 0xFFFFFFFFFFFFFFFF DUP2 GT ISZERO PUSH2 0x2E0 JUMPI PUSH2 0x2DF PUSH2 0x515 JUMP JUMPDEST JUMPDEST PUSH2 0x2EC DUP6 DUP3 DUP7 ADD PUSH2 0x268 JUMP JUMPDEST SWAP3 POP POP PUSH1 0x20 PUSH2 0x2FD DUP6 DUP3 DUP7 ADD PUSH2 0x296 JUMP JUMPDEST SWAP2 POP POP SWAP3 POP SWAP3 SWAP1 POP JUMP JUMPDEST PUSH1 0x0 PUSH2 0x312 DUP3 PUSH2 0x3E2 JUMP JUMPDEST PUSH2 0x31C DUP2 DUP6 PUSH2 0x3ED JUMP JUMPDEST SWAP4 POP PUSH2 0x32C DUP2 DUP6 PUSH1 0x20 DUP7 ADD PUSH2 0x417 JUMP JUMPDEST PUSH2 0x335 DUP2 PUSH2 0x51F JUMP JUMPDEST DUP5 ADD SWAP2 POP POP SWAP3 SWAP2 POP POP JUMP JUMPDEST PUSH2 0x349 DUP2 PUSH2 0x3FE JUMP JUMPDEST DUP3 MSTORE POP POP JUMP JUMPDEST PUSH1 0x0 PUSH1 0x20 DUP3 ADD SWAP1 POP DUP2 DUP2 SUB PUSH1 0x0 DUP4 ADD MSTORE PUSH2 0x369 DUP2 DUP5 PUSH2 0x307 JUMP JUMPDEST SWAP1 POP SWAP3 SWAP2 POP POP JUMP JUMPDEST PUSH1 0x0 PUSH1 0x20 DUP3 ADD SWAP1 POP PUSH2 0x386 PUSH1 0x0 DUP4 ADD DUP5 PUSH2 0x340 JUMP JUMPDEST SWAP3 SWAP2 POP POP JUMP JUMPDEST PUSH1 0x0 PUSH2 0x396 PUSH2 0x3A7 JUMP JUMPDEST SWAP1 POP PUSH2 0x3A2 DUP3 DUP3 PUSH2 0x47C JUMP JUMPDEST SWAP2 SWAP1 POP JUMP JUMPDEST PUSH1 0x0 PUSH1 0x40 MLOAD SWAP1 POP SWAP1 JUMP JUMPDEST PUSH1 0x0 PUSH8 0xFFFFFFFFFFFFFFFF DUP3 GT ISZERO PUSH2 0x3CC JUMPI PUSH2 0x3CB PUSH2 0x4DC JUMP JUMPDEST JUMPDEST PUSH2 0x3D5 DUP3 PUSH2 0x51F JUMP JUMPDEST SWAP1 POP PUSH1 0x20 DUP2 ADD SWAP1 POP SWAP2 SWAP1 POP JUMP JUMPDEST PUSH1 0x0 DUP2 MLOAD SWAP1 POP SWAP2 SWAP1 POP JUMP JUMPDEST PUSH1 0x0 DUP3 DUP3 MSTORE PUSH1 0x20 DUP3 ADD SWAP1 POP SWAP3 SWAP2 POP POP JUMP JUMPDEST PUSH1 0x0 DUP2 SWAP1 POP SWAP2 SWAP1 POP JUMP JUMPDEST DUP3 DUP2 DUP4 CALLDATACOPY PUSH1 0x0 DUP4 DUP4 ADD MSTORE POP POP POP JUMP JUMPDEST PUSH1 0x0 JUMPDEST DUP4 DUP2 LT ISZERO PUSH2 0x435 JUMPI DUP1 DUP3 ADD MLOAD DUP2 DUP5 ADD MSTORE PUSH1 0x20 DUP2 ADD SWAP1 POP PUSH2 0x41A JUMP JUMPDEST DUP4 DUP2 GT ISZERO PUSH2 0x444 JUMPI PUSH1 0x0 DUP5 DUP5 ADD MSTORE JUMPDEST POP POP POP POP JUMP JUMPDEST PUSH1 0x0 PUSH1 0x2 DUP3 DIV SWAP1 POP PUSH1 0x1 DUP3 AND DUP1 PUSH2 0x462 JUMPI PUSH1 0x7F DUP3 AND SWAP2 POP JUMPDEST PUSH1 0x20 DUP3 LT DUP2 EQ ISZERO PUSH2 0x476 JUMPI PUSH2 0x475 PUSH2 0x4AD JUMP JUMPDEST JUMPDEST POP SWAP2 SWAP1 POP JUMP JUMPDEST PUSH2 0x485 DUP3 PUSH2 0x51F JUMP JUMPDEST DUP2 ADD DUP2 DUP2 LT PUSH8 0xFFFFFFFFFFFFFFFF DUP3 GT OR ISZERO PUSH2 0x4A4 JUMPI PUSH2 0x4A3 PUSH2 0x4DC JUMP JUMPDEST JUMPDEST DUP1 PUSH1 0x40 MSTORE POP POP POP JUMP JUMPDEST PUSH32 0x4E487B7100000000000000000000000000000000000000000000000000000000 PUSH1 0x0 MSTORE PUSH1 0x22 PUSH1 0x4 MSTORE PUSH1 0x24 PUSH1 0x0 REVERT JUMPDEST PUSH32 0x4E487B7100000000000000000000000000000000000000000000000000000000 PUSH1 0x0 MSTORE PUSH1 0x41 PUSH1 0x4 MSTORE PUSH1 0x24 PUSH1 0x0 REVERT JUMPDEST PUSH1 0x0 DUP1 REVERT JUMPDEST PUSH1 0x0 DUP1 REVERT JUMPDEST PUSH1 0x0 DUP1 REVERT JUMPDEST PUSH1 0x0 DUP1 REVERT JUMPDEST PUSH1 0x0 PUSH1 0x1F NOT PUSH1 0x1F DUP4 ADD AND SWAP1 POP SWAP2 SWAP1 POP JUMP JUMPDEST PUSH2 0x539 DUP2 PUSH2 0x3FE JUMP JUMPDEST DUP2 EQ PUSH2 0x544 JUMPI PUSH1 0x0 DUP1 REVERT JUMPDEST POP JUMP INVALID LOG2 PUSH5 0x6970667358 0x22 SLT KECCAK256 PC SWAP6 BALANCE DIFFICULTY PUSH28 0xF345BF259142BF62E6ACB8A7848EA5D53F50F55F3CCAEF046B137964 PUSH20 0x6F6C634300080700330000000000000000000000 "
				},
				"gasEstimates": {
					"creation": {
						"codeDepositCost": "281000",
						"executionCost": "318",
						"totalCost": "281318"
					},
					"external": {
						"getValueName()": "infinite",
						"getValueOfAge()": "2443",
						"setValues(string,uint256)": "infinite"
					}
				},
				"methodIdentifiers": {
					"getValueName()": "8762d4f0",
					"getValueOfAge()": "ecd34bcc",
					"setValues(string,uint256)": "f036e608"
				}
			},
			"storageLayout": {
				"storage": [
					{
						"astId": 9,
						"contract": "struct.sol:structure",
						"label": "object",
						"offset": 0,
						"slot": "0",
						"type": "t_struct(myStruct)6_storage"
					}
				],
				"types": {
					"t_string_storage": {
						"encoding": "bytes",
						"label": "string",
						"numberOfBytes": "32"
					},
					"t_struct(myStruct)6_storage": {
						"encoding": "inplace",
						"label": "struct structure.myStruct",
						"members": [
							{
								"astId": 3,
								"contract": "struct.sol:structure",
								"label": "age",
								"offset": 0,
								"slot": "0",
								"type": "t_uint256"
							},
							{
								"astId": 5,
								"contract": "struct.sol:structure",
								"label": "name",
								"offset": 0,
								"slot": "1",
								"type": "t_string_storage"
							}
						],
						"numberOfBytes": "64"
					},
					"t_uint256": {
						"encoding": "inplace",
						"label": "uint256",
						"numberOfBytes": "32"
					}
				}
			},
			"userdoc": {
				"kind": "user",
				"methods": {},
				"version": 1
			}
		}
	}
}